:020000043400C6
:1004000000002034DD1C01349D080234391D013404
:100410009F080234A1080234391D0134A3080234B4
:1004200000000000000000000000000001B70034E0
:10043000A50802340000000091B60034B9B30034BE
:10044000391D013400000000391D0134391D01340B
:10045000391D0134391D0134391D0134391D013470
:10046000391D013400000000391D0134391D0134EB
:10047000391D0134E1070234391D01340000000048
:10048000391D013400000000391D0134391D0134CB
:10049000391D0134391D0134391D0134391D013430
:1004A000391D0134391D0134391D0134391D013420
:1004B000391D0134391D0134391D0134391D013410
:1004C000391D0134391D0134391D0134391D013400
:1004D000391D0134391D0134391D0134391D0134F0
:1004E000391D013400000000391D0134391D01346B
:1004F000391D0134391D0134391D0134A708023476
:10050000B5080234000000000000000000000000F8
:10051000391D0134D1450034391D0134391D0134F0
:10052000391D0134391D0134391D0134391D01349F
:10053000391D0134391D0134391D0134391D01348F
:10054000391D0134391D0134391D0134391D01347F
:10055000391D0134391D0134391D0134391D01346F
:0C07400000000000391D0134391D013497
:1007500010B5054C237833B9044B13B10448AFF3FB
:1007600000800123237010BD201704340000000016
:10077000F852023408B5034B1BB103490348AFF3E9
:10078000008008BD0000000024170434F852023431
:10079000034613F8012B002AFBD1181A01387047C1
:1007A00090EDAD5A30B52DED108B90EDA87BB5EEE8
:1007B000C05A89B08DED007BF1EE10FA90EDA47B6C
:1007C000044691ED014A91ED002A91ED02FB91ED75
:1007D00004EB90ED123B90EDAACB90ED16BB8DEDA6
:1007E000047B90EDA66B09DCD0F8C832D648984758
:1007F0004FF0FF3009B0BDEC108B30BDB8EE444B6C
:100800009FEDC37BB8EE422B24EE077BB4EEC27B98
:10081000F1EE10FA0FDD90ED1C7B9FEDBF1B37EE64
:10082000011B9FEDBF7BB4EEC71BF1EE10FA37FE44
:10083000017B80ED1C7B9FEDBC7B24EE074BB4EE6F
:10084000C24BF1EE10FA10D594ED1C7B9FEDB24B2C
:1008500037EE447B9FEDB64BB4EEC47BF1EE10FA5D
:1008600058BFB0EE474B84ED1C4B94F85050B7EE98
:10087000C55A012D64D19FEDB07B3FEE4E4B84EE07
:1008800007DB3FEE0E4B84EE07ABB0EECD7BB4EE54
:10089000C75BF1EE10FAB0EECA4B3CDBB4EEC45BC2
:1008A000F1EE10FA37DB002384F8783083EE0C9BEE
:1008B000BCEEC99BB8EE499B29EE0C9B0022FCEED6
:1008C000C95BB0EE498BCDED035A84F86020002B54
:1008D00000F08C80F7EECB0BB7EEC70B8DED066BFF
:1008E00024F0AAFBB2EE047BB7EEC00AB0EECE5BFA
:1008F00020EE070BB0EECF7BB4EEC57BF1EE10FA25
:100900009DED066B34DDB5EEC0FBF1EE10FA34D58B
:1009100039EE400B33E0B4EEC45BF1EE10FA25D5AE
:100920008AEE0D4B94EDAE5AB0EEC44BB7EEC55AFD
:10093000B4EEC54BF1EE10FAB4BF01230023B5E7C6
:10094000B0EECF7BB0EECE4BB4EE474BF1EE10FAEB
:1009500034FE077BB4EEC57B9FED79ABF1EE10FA68
:10096000B0EE4ADB8CBF012300239FE701239DE704
:10097000B5EEC0EBF1EE10FACAD539EE000B94EDEE
:100980003C7BB4EEC07BF1EE10FA03D5B0EE46BB73
:10099000B0EE470B94ED3A7BB4EEC07BF1EE10FA6B
:1009A00003DDB0EE46BBB0EE470B80EE0C8BBCEE29
:1009B000C88BB8EE488B012D2CEE088B16D1B4F8FD
:1009C000E030022B5FD8FCEEC97BB8EE677B04EB0E
:1009D000C30282ED207B82ED268B04EB03120133F0
:1009E00082ED2CDB82ED2EABA4F8E03094F8783069
:1009F0004BBB102204F1880104F180008DED066BE1
:100A000020F010FE102204F1A00104F1980020F063
:100A100009FED4E9302384ED249BC4E92C23D4E9D6
:100A2000322384ED2A8BC4E92E23D4E934239DEDAF
:100A3000066BC4E93023D4E9362384ED34DB84ED3E
:100A400036ABC4E93223FCEEC87B17EE903A94ED46
:100A50001A7B039AB5EEC07B93421CBF012384F836
:100A60006030F1EE10FA71DD012384F860309DED05
:100A7000007BB4EEC7BBF1EE10FA79D59DED047B97
:100A80003BEE076B66E094ED2A7B94EDAF5A38EEAF
:100A9000477BB7EEC55AB0EEC77BB4EEC57BF1EE2F
:100AA00010FA2CDB94ED287B38EE477BB0EEC77B49
:100AB000B4EEC75BF1EE10FA21DD94ED320B94ED4C
:100AC000307B3AEE400B3DEE477B20EE000BA7EE6D
:100AD000070B8DED066B22F077FF94EDB07AB7EE41
:100AE000C77AB4EEC70BF1EE10FA9DED066B06D592
:100AF000FCEEC97B84F87850B8EE678B76E794F803
:100B00007830012B04BF002384F878306EE700BFF3
:100B10009A9999999999A93F7B14AE47E17A843FB4
:100B2000343333333333C33F333333333333C33F5C
:100B3000111111111111B13FCD3B7F669EA0F63FFF
:100B40000000000000000000C78D023494F86030FF
:100B5000002B8CD188EE0C7BBCEEC77BB8EE477BBC
:100B600027EE0C7B84ED166B84ED127B012041E6B1
:100B70009DED006BEEE790ED1A6BB5EEC06B90ED5E
:100B8000124BF1EE10FA90EDAA5BB0EE467BDFBFA0
:100B900084EE057BBCEEC77BB8EE477B27EE057B7A
:100BA000B7EEC77B90ED3C5BB7EEC74AB4EEC54BE2
:100BB000F1EE10FAC8BFB7EEC57B90ED3A5BB7EE29
:100BC000C74AB4EEC54BF1EE10FA48BFB7EEC57B8D
:100BD000B7EEC75AD0F8743230B580ED125B93EDA2
:100BE000005AD0EDAC7AB4EEC75AF1EE675AF1EE86
:100BF00010FA4FF00001B0F8F83075FEA77A013B0B
:100C00008AB2934205D8442202FB030303F5907392
:100C100011E000EB8204D4ED445A77EEA55AF4EECD
:100C2000C75AF1EE10FA01F10101E9DB442303FB9D
:100C3000020202F59073B5EEC06BF1EE10FAC0F847
:100C4000743205DC93ED007AB7EEC77A80ED127B43
:100C50005A6803F1380142609A6803F12404826003
:100C6000DA68C2601A69026100F138025D690C330A
:100C70004561DD680C30C5601D69A342056151F80E
:100C8000045B42F8045BF1D1012030BD10B504468D
:100C900090B070B10023084C40212370C4F8C80202
:100CA000064B6846064A24F077F96846D4F8C832FD
:100CB0009847204610B010BD401704348013043408
:100CC000078E0234002814BF01204FF0FF30704718
:100CD00080ED000A30B50C6844604C6884608C6814
:100CE000C460C96802F12404016100F1380115688B
:100CF0000C32456152F8085C0C30C56052F8045C57
:100D0000A242056153F8045B41F8045BEFD130BDAA
:100D10002DE9F04F2DED068B0E46B0EE409BB0EE68
:100D2000418B1D460446C7B0002800F08F819FED1F
:100D3000CCAB80ED12AB0020CF494FF00008C4E9E6
:100D40001601C4E9A601C4E9AA01CC49DFF8609301
:100D5000C4F8B0124FF07E51C4F8B4124FF07C5179
:100D6000C4E91A890FF20039D9E90089C4E91C895C
:100D7000C4E9A4894FF00008C4F8B812C049DFF8EC
:100D80003493C4F8BC124FF07F510023C4E9A88902
:100D900001274FF00008C4F8C012711EDFF8189345
:100DA00088B20428C4E9A0890FF2C429D9E90089CE
:100DB00084F86030C4E9A289A4F8E03084F878307F
:100DC000A4F8787214D905234FF48071AD4A06A8AF
:100DD00024F0E2F8D4F8C83206A8984784F8507096
:100DE000204647B0BDEC068BBDE8F04FFFF7C3BE11
:100DF00095ED007AB7EEC77AB4EEC70BF1EE10FAB4
:100E000012DDD4F8C832A048984795ED007AB7EEC5
:100E1000C77A8DED009B8DED027B9C4A4FF480716B
:100E200006A824F0B9F8D5E74FF0440C0CFB06589F
:100E300018ED117AB7EEC77AB4EEC71BF1EE10FACF
:100E400041D5D4F8C8329248984798ED007AB7EE69
:100E5000C77A8DED008B8DED027B8E4ADEE70CFBB1
:100E600008F705EB070944372F4499ED007AD7EDD1
:100E7000007AB4EEE77AF1EE10FA08F1010A00F117
:100E8000010021DBD4F8C8328348984797ED007AF7
:100E9000B7EEC77A8DED047BCDF808A099ED007A06
:100EA000B7EEC77A43468DED007B7C4A4FF48071E4
:100EB00006A824F071F8D4F8C83206A89847012390
:100EC00084F850308CE718461FFA80F84145C6D8A0
:100ED00000234FF0440CB01E9FB2B94239D884EDC4
:100EE0003A9B84ED3C8B0020A4F8F86083B29942D1
:100EF00000F1010000F28B800027B84604F1FC0AE3
:100F000004F5907905EB070B09EB070044225946DD
:100F100020F029FEDBF8003008F101084AF8043B14
:100F20001FFA88F39E4207F14407EBD8731E9BB269
:100F3000002E03F1010314BF1A460122C4F8749273
:100F400004F5B271013A6AD1012384F8503023705C
:100F500046E702EB8709B842D9ED007A4FEA8708E5
:100F600007F1010A1ED908F10408904498ED007AAF
:100F7000B4EEE77AF1EE10FA14D8D4F8C832484843
:100F8000984798ED007AB7EEC77A8DED047BCDF8DF
:100F900008A099ED007AB7EEC77A3B468DED007B4D
:100FA000404A83E70CFB07F805EB080A9AED007A44
:100FB000B4EEE77AF1EE10FA08F14408A84408DA32
:100FC00098ED007AB4EEE77AF1EE10FA03F101033E
:100FD00082D8D4F8C8323448984798ED007AB7EEF2
:100FE000C77A8DED047B9AED007AB7EEC77A8DED66
:100FF000027B99ED007AB7EEC77A3B468DED007B18
:101000004FF48071294A06A823F0C6FF53E702EB8C
:1010100083073F6804EB8303C3F8107166E7D4F8D5
:10102000743291ED006A93ED007AB7EEC66AB7EEBE
:10103000C77A36EE4A6B37EE4A7BB4EEC76BF1EEF9
:1010400010FA48BFC4F8741244317BE74FF0FF3008
:1010500047B0BDEC068BBDE8F08F00BFAFF300805A
:10106000000000000088B3409A9999999999B93F76
:101070000000000000A06E400000F03F0000484269
:1010800000002F43178E02345B8E0234E28E02344E
:10109000408F0234C88F0234259002348990023484
:1010A000E190023450910234BA9102341192023428
:1010B0000000F0BF000008400000244030B50546A5
:1010C00014468DB052B9D0F8C8321D489847D5F8AB
:1010D000C8321C48984720460DB030BD93ED042B14
:1010E00093ED021B93ED000B0AAA08A906A800F0D5
:1010F0002FF8DDE90823CDE90223DDE90A23CDE954
:101100000423012398420446CDE90033DFD1694628
:101110002846FFF745FB0128044603D0D5F8C8321E
:101120000948D7E795F86030012BD4D12846FFF75E
:1011300022FD01280446CED0D5F8C8320348C9E7BD
:1011400097920234F8920234219302345593023478
:10115000B5EEC00BF1EE10FA1FB509D4B5EEC01B09
:10116000F1EE10FA04D4B5EEC02BF1EE10FA0DD565
:101170008DED022B8DED001B53EC102B444820F01D
:10118000CDF84FF0FF3005B05DF804FB9FED327BEA
:10119000B4EEC70BF1EE10FA09DCB4EEC71BF1EEAA
:1011A00010FA04DCB4EEC72BF1EE10FA07DD8DED7A
:1011B000022B8DED001B53EC102B3648DFE728B1D6
:1011C00089B1B2B93449354B084607E071B13349AA
:1011D0003148002A304A314B18BF13460246304886
:1011E00020F09CF8CDE72C492C48F2E72B49084623
:1011F000EFE79FED1B7B9FED1C6B21EE077BB3EEB2
:10120000005BA0EE067B9FED1A6BA2EE057BA7EEBE
:10121000065B9FED197B80ED005B27EE417BBBEE0B
:101220000A5BA0EE057B9FED165BA2EE057B27EE29
:10123000067B81ED007B9FED147B27EE411BB2EE18
:10124000047BA0EE051BA2EE471B21EE061B01202E
:1012500082ED001B97E700BF0000000000E06F4038
:101260000000000000A06340000000000080474034
:10127000000000000000703F0000000000805540AA
:101280000000000000005C400000000000805940A9
:1012900092930234D09302348C9302348A930234B2
:1012A00010940234000000002DE9F0419846436D8F
:1012B0000F460646069923B9C8F800700A60BDE8D3
:1012C000F081214D5B00B5FBF3F59542F4D2B2FB02
:1012D000F5F407EE902A04FB0554B8EE677A07EEA2
:1012E000904ADFED1A6AF8EE677A67EEA67AB4EEF6
:1012F000E77AF1EE10FADFD5621B0A60013207EEE1
:10130000902AF8EE677A87EE270AB7EEC00A22F035
:1013100027FB9FED0B7B20EE070BBCEEC00B10EE06
:10132000103A3B441F46C8F80030F36CBB4294BFF0
:10133000C8F80030C8F80070C1E700BFAFF3008004
:10134000000000000088D34040420F003333733F59
:1013500007EE901A9FED287AF8EE677A70B587EE5F
:10136000871A2DED028B08EE102AB7EEC11AB2EEE5
:10137000040B05461C46069E22F0FAFBB8EE488B8D
:1013800028EE000BFCEEC07B17EE902A696CB8EEDD
:10139000677A914216D900232360C6ED007A6B6C00
:1013A000DFED166A07EE903AF8EE677A67EEA67AF6
:1013B000B4EE677AF1EE10FAC8BF1A463260BDEC9F
:1013C000028B70BD07EE901AF8EE677A87EE270A57
:1013D0003160B7EEC00A22F0C3FA9FED057B20EE24
:1013E000070BBCEEC00B84ED000AE8E7AFF300800A
:1013F000000000000088D34000409C4648E17A3F4E
:1014000010B5044690B060B10023074C4021237012
:10141000A065064B6846064A23F0BEFD6846A36DEC
:101420009847204610B010BD101A043486130434B7
:101430005A940234002814BF01204FF0FF30704747
:1014400038220A23C0E9042364222D237821C0E92D
:10145000062340F2DC5330B5C0E9081341F2707442
:1014600042F6E063C0E90A430BA5D5E90045052330
:1014700048F2E80103650023C0E910310121C0E909
:101480000C4507A5D5E90045C0E91212C0E90E4593
:10149000436530BDAFF3008000000040E17A943F27
:1014A000000000E04D62703F10B5044620B1FFF728
:1014B000C7FF0120207010BD4FF0FF30FBE72DE982
:1014C000F04F15469B46044687B0002800F0238164
:1014D0000378012B1AD102230370D4F85480B8F199
:1014E000000F17D0904B4FEA4802B3FBF2F3A66C03
:1014F0008E4211D2626CAA420ED9B5FBF3F203FB05
:1015000012534BB1C4E90156012006E1022BE4D08D
:10151000002002E10123EAE70DF114092A4604AB99
:101520002046CDF800900391FFF712FFDDE9047229
:10153000D4F810C0B6EE005B07EE90CAB8EE676A4A
:1015400007EE90BAB8EEE77BB7EEC66A37EE057BDA
:1015500086EE070B236DB7EEC00B9B45039948D26F
:10156000F0EE007AB4EEE70AF1EE10FA41D4616CC5
:10157000B7EE007A8A4220D2012A134638BF0123EF
:1015800007EE903AF8EEE77A67EE807AFDEEE77ABA
:1015900017EE903A8B42C1BF07EE901AB8EEE76A99
:1015A00007EE902AF8EE676AC3BFC6EE267A0B46AE
:1015B00080EE270AB0EE470A6360B4EEC70AF1EE88
:1015C00010FAA1DDB7EEC00A22F0CAF9B3EE047B2F
:1015D00020EE070B9FED527B20EE070BBDEEC00BFC
:1015E00010EE103AE26C3B449342D4BFA360A26079
:1015F0008AE7ACEB0B0383EAE37EAEEBE37E039377
:10160000E3699E4559D8D4F824E00398A36943437D
:10161000606900EB0C0ADA45DFF814A155D207EE39
:1016200090EA9FED427AF8EEE77A67EE877A07EE66
:10163000103AF1EE676AB8EEC77AB4EEE67AF1EEE8
:1016400010FA04D5FDEEE77A17EE903A5B42002BD4
:1016500050D0BE4244D1616C8A4201D3002B3FDAA4
:10166000039807EE902A02FB000006EE900A002B7A
:10167000B8EEE77BB8EEE66B2FDA94ED0E5BA5EEE5
:10168000067BBDEEC77B17EE102A236CA7609A423B
:10169000B8BF1A468A42D4BF626061602046CDF866
:1016A000009004ABD4E90121FFF7FEFD049B059DEA
:1016B000A3606560CAF8608026E7236A9E452CBF58
:1016C000D4F82CE0D4F828E09FE7ACEB000CDC4524
:1016D00010DD7345A8BF7346B9E794ED0C5BCEE708
:1016E0001F44BE4203DCE66CBE42A8BF3E46C4E9CE
:1016F0000126D3E7DAF8603098450AD02A4620461A
:10170000CDF8009004ABB8F1000FCDD1FFF720FE6B
:10171000CCE7A160CDE74FF0FF3007B0BDE8F08F18
:101720000000000000408F4040420F009A99593F4E
:10173000101A043481F0004102E000BF83F000433E
:1017400030B54FEA41044FEA430594EA050F08BF5C
:1017500090EA020F1FBF54EA000C55EA020C7FEA20
:10176000645C7FEA655C00F0E2804FEA5454D4EB9D
:101770005555B8BF6D420CDD2C4480EA020281EA67
:10178000030382EA000083EA010180EA020281EA9F
:101790000303362D88BF30BD11F0004F4FEA0131F1
:1017A0004FF4801C4CEA113102D0404261EB410100
:1017B00013F0004F4FEA03334CEA133302D0524286
:1017C00063EB430394EA050F00F0A780A4F1010442
:1017D000D5F1200E0DDB02FA0EFC22FA05F280187C
:1017E00041F1000103FA0EF2801843FA05F3594162
:1017F0000EE0A5F120050EF1200E012A03FA0EFCE1
:1018000028BF4CF0020C43FA05F3C01851EBE3710A
:1018100001F0004507D54FF0000EDCF1000C7EEB27
:1018200000006EEB0101B1F5801F1BD3B1F5001F65
:101830000CD349085FEA30004FEA3C0C04F1010484
:101840004FEA445212F5800F80F09A80BCF1004FAD
:1018500008BF5FEA500C50F1000041EB045141EA2F
:10186000050130BD5FEA4C0C404141EB0101013CF8
:1018700028BFB1F5801FE9D291F0000F04BF0146E7
:101880000020B1FA81F308BF2033A3F10B03B3F1B9
:1018900020020CDA0C3208DD02F1140CC2F10C0249
:1018A00001FA0CF021FA02F10CE002F11402D8BFA7
:1018B000C2F1200C01FA02F120FA0CFCDCBF41EA73
:1018C0000C019040E41AA2BF01EB0451294330BD42
:1018D0006FEA04041F3C1CDA0C340EDC04F114041F
:1018E000C4F1200220FA04F001FA02F340EA0300F6
:1018F00021FA04F345EA030130BDC4F10C04C4F13C
:10190000200220FA02F001FA04F340EA030029461B
:1019100030BD21FA04F0294630BD94F0000F83F465
:10192000801306BF81F480110134013D4EE77FEA48
:10193000645C18BF7FEA655C29D094EA050F08BF94
:1019400090EA020F05D054EA000C04BF1946104675
:1019500030BD91EA030F1EBF0021002030BD5FEAB9
:10196000545C05D14000494128BF41F0004130BDE1
:1019700014F580043CBF01F5801130BD01F0004535
:1019800045F0FE4141F470014FF0000030BD7FEAA8
:10199000645C1ABF194610467FEA655C1CBF0B46A3
:1019A000024650EA013406BF52EA033591EA030FBA
:1019B00041F4002130BD00BF90F0000F04BF0021B2
:1019C000704730B54FF4806404F132044FF00005E5
:1019D0004FF0000150E700BF90F0000F04BF00215E
:1019E000704730B54FF4806404F1320410F00045C4
:1019F00048BF40424FF000013EE700BF42004FEABF
:101A0000E2014FEA31014FEA02701FBF12F07F433B
:101A100093F07F4F81F06051704732F07F4208BFF2
:101A2000704793F07F4F04BF41F40021704730B5F9
:101A30004FF4607401F0004521F000411CE700BF45
:101A400050EA010208BF704730B54FF000050AE0C8
:101A500050EA010208BF704730B511F0004502D5C9
:101A6000404261EB41014FF4806404F132045FEACB
:101A7000915C3FF4D8AE4FF003025FEADC0C18BF74
:101A800003325FEADC0C18BF033202EBDC02C2F166
:101A9000200300FA03FC20FA02F001FA03FE40EAF8
:101AA0000E0021FA02F11444BDE600BF7BB972B901
:101AB0000029BEBF00204FF0004106E008BF00280B
:101AC0001CBF6FF000414FF0FF3000F0FBB9ADF1EB
:101AD000080C6DE904CE002909DB002B1ADB00F0AD
:101AE0004DF8DDF804E0DDE9022304B07047404220
:101AF00061EB4101002B1BDB00F040F8DDF804E056
:101B0000DDE9022304B0404261EB4101524263EB44
:101B100043037047524263EB430300F02FF8DDF8B4
:101B200004E0DDE9022304B0404261EB410170476B
:101B3000524263EB430300F021F8DDF804E0DDE9F5
:101B4000022304B0524263EB4303704753B94AB9CE
:101B5000002908BF00281CBF4FF0FF314FF0FF30B5
:101B600000F0B0B9ADF1080C6DE904CE00F006F854
:101B7000DDF804E0DDE9022304B070472DE9F04F01
:101B8000099D884604468E46002B4AD18A42174654
:101B90005FD9B2FA82F64EB1C6F1200301FA06FE11
:101BA000B740B44020FA03F343EA0E0E4FEA174859
:101BB0001FFA87FC230CBEFBF8F108FB11EE01FBBA
:101BC0000CF243EA0E439A4207D9FB1801F1FF30A9
:101BD00002D29A4200F2548101469B1AA2B2B3FB90
:101BE000F8F008FB103300FB0CFC42EA034294457A
:101BF0000BD9BA1800F1FF332CBF012400249445FF
:101C000002D9002C00F03F81184640EA0140A2EBC7
:101C10000C0200211DB1F2400023C5E90023BDE8FC
:101C2000F08F8B4205D90DB1C5E9000100210846AE
:101C3000F5E7B3FA83F100294ED14345C0F0128194
:101C4000824240F20F810846002DE8D0C5E9004EDF
:101C5000E5E7002A00F0AC80B2FA82F6002E40F0F0
:101C6000BB808B1A4FEA124EBCB20121020C80B22B
:101C7000B3FBFEFC0EFB1C3342EA034304FB0CF2F5
:101C80009A420ED9FB180CF1FF382CBF4FF0010916
:101C90004FF000099A4203D9B9F1000F00F0EC802F
:101CA000C4469B1AB3FBFEF80EFB183304FB08F482
:101CB00040EA034294420BD9BA1808F1FF332CBF13
:101CC00001200020944202D9002800F0D1809846DB
:101CD000121B48EA0C409DE7C1F120068B4008FA30
:101CE00001F400FA01F922FA06F728FA06F88A4008
:101CF0001F4320FA06F3380C23431FFA87FC1C0C01
:101D0000B8FBF0FE00FB1E8844EA08440EFB0CF80A
:101D1000A0450ED93C190EF1FF3A2CBF4FF0010B34
:101D20004FF0000BA04503D9BBF1000F00F0B880C5
:101D3000D646A4EB08041FFA83F8B4FBF0F300FBCB
:101D4000134403FB0CFC48EA0444A4450ED93C1997
:101D500003F1FF302CBF4FF001084FF00008A445FD
:101D600003D9B8F1000F00F09F80034643EA0E400C
:101D7000A4EB0C04A0FB02EC64457346E04602D3DE
:101D800007D1F14505D2BEEB02036CEB070C01381D
:101D9000E0465DB1B9EB030264EB080404FA06F611
:101DA00022FA01F3CC401E43C5E90064002136E766
:101DB000B1FBF2FC010C144680B2964641EA0841A0
:101DC0002026904640EA01431046B1FBF2F1A3EB16
:101DD000080341EA0C414BE7B740C6F1200301FA82
:101DE00006F221FA03F84FEA174E20FA03F3BCB2C9
:101DF000B0401343020C190C80B2B8FBFEF90EFB85
:101E0000198841EA084109FB04F8884551D9791835
:101E100009F1FF3C2CBF4FF0010A4FF0000A884542
:101E200002D9BAF1000F31D0A1EB0801B1FBFEF9E4
:101E300009FB04F80EFB19119BB243EA0143434529
:101E400035D2FB1809F1FF312CBF4FF0010A4FF0DA
:101E5000000A4345BBD2BAF1000FB8D1A9F1020183
:101E60003B44B4E7841A68EB030201209646EBE694
:101E70003A44A8F102082BE7ACF1020C3B4410E70E
:101E800002393B44A9E63A440238BEE6A7EB08080B
:101E9000A9F1020C4144B1FBFEF909FB04F8C9E7C2
:101EA000AEF1020E3C4444E7023B3C445EE7494647
:101EB0008DE7A1EB0801CC46B1FBFEF909FB04F864
:101EC000B8E700BF704700BF0138012810B51446BD
:101ED00007D91FF005FE09234FF0FF3403602046A9
:101EE00010BD4FF0FF33044892B21BF0F7FC0028FE
:101EF00018BF0024F3E700BF7C52073408B5012067
:101F0000074908F003F8074B186028B92521064B4C
:101F1000064A07481EF0D6FC0122064B1A6008BD8F
:101F2000741A0434C41A0434F05502348A94023406
:101F3000FA550234C81A043408B50C4B1B68A3B117
:101F4000EFF305832BB13221094B0A4A0A481EF0F0
:101F5000B9FC0A4B4FF0FF31186808F0D9F8012896
:101F600003D03521064B034AF0E708BDC81A0434F4
:101F7000885602347C940234FA550234C41A04346C
:101F80009756023408B50C4B1B68A3B1EFF30583D9
:101F90002BB14021094B0A4A0A481EF093FC0A481B
:101FA0001A461946006807F00FFF012803D04321A5
:101FB000064B034AF0E708BDC81A043488560234B9
:101FC0006C940234FA550234C41A0434975602341D
:101FD0000120704708B51FF083FD162303604FF002
:101FE000FF3008BD08B51FF07BFD16230360FEE738
:101FF00070B50D4614460E46731B9C4201DC20460C
:1020000070BDAFF3008006F8010BF5E74FF0FF302D
:1020100070474FF4005300204B6070470120704719
:102020000020704730B5134D6B69DB031FD50A1ACA
:10203000002A1CDD00F01F031A44BFF34F8F8418E1
:10204000C2431B1A0B442244203B5209203302F1A5
:10205000010ED8BF4FF0010E4EF001E0C5F85C0252
:1020600020300FF005C8BFF34F8FBFF36F8F0020F4
:1020700030BD00BF00ED00E030B5134D6B69DB03F0
:102080001FD50A1A002A1CDD00F01F031A44BFF3F3
:102090004F8F8418C2431B1A0B442244203B520921
:1020A000203302F1010ED8BF4FF0010E4EF001E0D7
:1020B000C5F8680220300FF005C8BFF34F8FBFF39B
:1020C0006F8F002030BD00BF00ED00E00248034BE1
:1020D000036010F0CDB800BFCC1A043400FC0D58DA
:1020E00010B5034C204610F08FF80228FAD010BD2E
:1020F000CC1A043410B5A34B88B01A780AB901225F
:102100001A70A14B1A6842F002021A6001221A608A
:102110004FF0FF329A60DA6000221A6103F5A043A3
:102120005C68002CFCD045F20103A2B29A4240F058
:102130009280964B5C68002CFCD045F21713A2B23B
:102140009A4240F0B080924B5C68002CFCD041F287
:102150001C13A2B29A4240F0CC808E4B5C68002CDB
:10216000FCD041F21A03A2B29A4240F0E6808A4BB8
:102170005C68002CFCD041F21B13A2B29A4240F0E2
:102180002D81864B5C68002CFCD041F61923A2B24D
:102190009A4240F04781824B5C68002CFCD041F2AF
:1021A0002113A2B29A4240F062817E4B5C68002CFF
:1021B000FCD043F22023A2B29A4240F07C81724BC1
:1021C0005C68002CFCD041F21F23A2B29A4240F07E
:1021D0009881754B5C68002CFCD041F21E13A2B2B2
:1021E0009A4240F0B481714B5C68002CFCD0A3B2E1
:1021F000B3F5B05F40F0CF816D4A5468002CFCD03D
:1022000045F21D03A1B2994200F0EC811FF068FC79
:102210000368002B00F0E4811FF062FC00681FF0EF
:1022200009FC034605220021CDE905211D22049267
:10223000C4F303220392C4F3033202925D4AE4B270
:102240005D4900925D48FB2201941FF067F8FB2175
:102250005B4B5C4A22E01FF043FC03680BB31FF0AA
:102260003FFC00681FF0E6FB034605224FF0000E1E
:10227000CDE9052E01220492C4F303220392C4F394
:1022800003320292504AE4B24B4900924B48C722B3
:1022900001941FF043F8C721494B4A4A46481EF0B3
:1022A00011FB4A4BE1E71FF01BFC0368FBB11FF079
:1022B00017FC00681FF0BEFB034605224FF0010C1F
:1022C000CDE9052C17220492C4F303220392C4F330
:1022D000033202923E4AE4B2374900923748CA229A
:1022E00001941FF01BF8CA21354B364AD6E7374B0D
:1022F000E3E71FF0F5FB0368EBB11FF0F1FB0068AB
:102300001FF098FB03460122CDE905221C2204920E
:10231000C4F303220392C4F3033202922D4AE4B2BF
:10232000254900922548CE2201941EF0F7FFCE21C8
:10233000234B244AB2E7254BE5E71FF0D1FB0368A6
:10234000F3B11FF0CDFB00681FF074FB03460122C0
:102350000020CDE905201A220492C4F3032203923F
:10236000C4F3033202921C4AE4B2134900921348A8
:10237000D22201941EF0D2FFD221114B114A8DE7D7
:10238000124BE4E7D81A043400000E5800F00E583F
:1023900000B00F5800700F5800500F5800300F5801
:1023A00000E00F5800D00F5800100E5800400E5893
:1023B00000200E58FA570234AA5602344557023408
:1023C000225D023400950234A9570234A556023426
:1023D000B0570234B8570234BD5702341FF080FBA7
:1023E0000368EBB11FF07CFB00681FF023FB034682
:1023F0000122CDE905221B220492C4F30322039299
:10240000C4F3033202927C4AE4B27C4900927C48D5
:10241000D62201941EF082FFD6217A4B7A4A3DE7FC
:102420007A4BE5E71FF05CFB0368F3B11FF058FB44
:1024300000681FF0FFFA034601220A21CDE90521B9
:1024400019220492C4F303220392C4F303320292CA
:102450006F4AE4B2694900926948DA2201941EF099
:102460005DFFDA21674B684A18E7684BE4E71FF025
:1024700037FB0368EBB11FF033FB00681FF0DAFA9B
:1024800003460122CDE9052221220492C4F303224E
:102490000392C4F3033202925E4AE4B257490092B7
:1024A0005748DE2201941EF039FFDE21554B564A73
:1024B000F4E6564BE5E71FF013FB0368FBB11FF092
:1024C0000FFB00681FF0B6FA034603224FF0020E1E
:1024D000CDE9052E20220492C4F303220392C4F313
:1024E000033202924C4AE4B2444900924448E22248
:1024F00001941EF013FFE221424B434ACEE6434BC8
:10250000E3E71FF0EDFA0368FBB11FF0E9FA00689A
:102510001FF090FA034601224FF0020CCDE9052C82
:102520001F220492C4F303220392C4F303320292E3
:102530003A4AE4B2314900923148F52201941EF042
:10254000EDFEF5212F4B304AA8E6304BE3E71FF0B4
:10255000C7FA0368EBB11FF0C3FA00681FF06AFA0C
:1025600003460122CDE905221E220492C4F3032270
:102570000392C4F303320292294AE4B21F49009243
:102580001F48F72201941EF0C9FEF7211D4B1E4A79
:1025900084E61E4BE5E71FF0A3FA0368F3B11FF0D2
:1025A0009FFA00681FF046FA034601220620CDE993
:1025B000052000220492C4F303220392C4F30332E1
:1025C0000292184AE4B20D4900920D48F922019492
:1025D0001EF0A4FEF9210B4B0B4A5FE60B4BE4E720
:1025E0000A4B1FE60123002013600F4A1360A2F577
:1025F0000052136008B010BDC3570234AA5602340B
:1026000045570234225D023400950234A556023447
:10261000C9570234CF570234D9570234E057023435
:10262000E8570234F057023400300E580020074BB0
:10263000186003F58053186003F580531860A3F504
:1026400040539860D86018611860704700100E58A9
:10265000F0B50024A14201F10102B8BF01221E4DD4
:102660001E4F861C013A01D10020F0BD10F8241045
:1026700036F82430082918D8DFE801F005170E19BC
:102680001D212517290003F5B023E5331B03196825
:1026900041F00101196008E003F5B02157F823303B
:1026A000EF31090343F001030B600134DAE703F56E
:1026B000B023F333EAE703F5B023F533E6E703F598
:1026C000B023F733E2E703F5B023FB33DEE72B68F3
:1026D00043F001032B60E8E700D00F58DC1A043404
:1026E00038B505469DF81040084631B140F23E31FC
:1026F0003D4B3E4A3E481EF0E5F825B1012D68D01D
:10270000022D6BD038BD062A5ED8DFE802F0045DEA
:102710001221303F4E0024B140F24631354B334A4E
:10272000E8E7092B1846EDD940F24731324B2F4AE2
:10273000E0E724B140F24D312E4B2C4ADAE7032B6F
:1027400003F10A00DED940F24E312C4B274AD1E783
:1027500024B14FF45571274B244ACBE7012B03F1E9
:102760000E00CFD940F25531254B204AC2E724B1A3
:1027700040F25B311F4B1D4ABCE7012B03F11000F7
:10278000C0D94FF457711E4B184AB3E724B140F239
:102790006231184B154AADE7032B03F11200B1D992
:1027A00040F26331154B114AA4E724B140F269317C
:1027B000104B0E4A9EE7012B03F11600A2D940F2FE
:1027C0006A310F4B094A95E740F26F310D4B074ACA
:1027D00090E740F275310B4B044A8BE740F27931B8
:1027E000084B024A86E700BF00580234EB940234DB
:1027F000AA5602340C5802341658023422580234B5
:102800002D580234225D023438B505469DF810403B
:10281000084631B140F28331464B474A47481EF0E3
:1028200051F825B1012D7AD0022D7DD038BD062A70
:1028300070D8DFE802F0046F15293D4C600024B128
:1028400040F28B313E4B3C4AE8E7092B04D94FF468
:1028500063713C4B384AE1E7082000EB8300E5E771
:10286000022C04D940F29231374B334AD6E7032B7E
:1028700004D940F29331354B2F4ACFE7032010FBA8
:10288000034080003030D1E7012C04D940F2993167
:102890002F4B294AC2E7012B04D940F29A312D4B24
:1028A000254ABBE704EB4304A40004F16000BDE744
:1028B00024B14FF46871224B1F4AAFE7012B04D9B2
:1028C00040F2A131234B1C4AA8E77020C5E7012C38
:1028D00004D940F2A7311E4B174A9FE7032B04D9B6
:1028E0004FF46A71194B144A98E704EB4304A400AF
:1028F00004F178009AE724B140F2AE31104B0E4A51
:102900008CE7012B04D940F2AF31124B0A4A85E71C
:102910009820A2E74FF46D710F4B074A7EE740F213
:10292000BA310D4B044A79E740F2BE310A4B024AF4
:1029300074E700BF00580234D6940234AA56023419
:102940000C580234165802343858023422580234D3
:10295000415802342D580234225D02340123134AB7
:10296000002930B5136001EB0302B8BF1A46013AE3
:1029700001D1002030BD847BD0E900535B0443EAE1
:10298000450304F001052B43057B816843EA0523D9
:10299000457B01F1B04143EA0563C4F3400401F50E
:1029A000642143EA04430B601030E0E700400E5816
:1029B0000222064B1A601A689207FCD44FF080423C
:1029C0001A601A685200FCD4FFF7C8BF00400E58C6
:1029D00030B50024A14201F101032546B8BF01230F
:1029E0000830013B01D1002030BD22018258013462
:1029F00002F1B04202F564221560F2E730B501241D
:102A00000025012354EA0D05034A834011694B4018
:102A100023404B40136130BD00000E5809282DE9BA
:102A2000F74F04460D46164604DD4FF0FF3003B065
:102A3000BDE8F08FFFF7E2FF012EF6D195F83C607C
:102A4000182EF2D895F83DC0BCF1180FEDD82878B3
:102A5000D5F838A0C201C30002F4807103F0080366
:102A60000B43C0F3800143EA412302F400621A439E
:102A700043080AF1FF3103F0100313434A424A416D
:102A800043EA8203020102F08002B5F800800702E7
:102A9000134307F480471F4308F41073A3F1400E5B
:102AA000DEF1000343EB0E0310F0010247EAC337E7
:102AB00031466346019200F0400940F0A980664526
:102AC0008CBF00220122032A00F0B280012A00F00C
:102AD000AA806146A6EB0C0203064BBF1204120645
:102AE00002F47C1202F07C5208298E46A8BF4FF0F7
:102AF000080E082940F399801029CBBFA1F11003DB
:102B000000230821083909F0FF0BB9F1000F0BD1A0
:102B1000BCF1100F00F3B280BCF1080F40F3B2809B
:102B200073468E4619465B4647EA0E4704F5B024C5
:102B300047EA0157E53447EA036724032760D5E9EC
:102B4000017E07EB0E03A3608307696A40F19D8055
:102B50006B694BB910F0010F18BF6646EB68A3EB29
:102B60000E03DB00B3FBF6F30020E3602B6B6FF387
:102B70000F0123626B6BE361AB6AA36141F0060353
:102B800023632B692BB11F4441F00701013F2163EF
:102B9000A763697828F0FE08C1F38013C1F34016DB
:102BA0001B0143EAC603C1F382063343AE78C90969
:102BB00043EA41134FEAC85806F0030143EA811380
:102BC0004FEAD8580199C4F834A0B8F5807F43EA99
:102BD00000034FEAC14009BFE97840F480110906BB
:102BE00001F0F85108BF01434FF0240060626261B8
:102BF000A364C6F38003C6F3C0064FEA863608BF57
:102C000041F4100146EA0336A162002066640EE733
:102C1000420002F00202664552EA2292022A7FF442
:102C200052AF00220FE000225EE700210B466AE768
:102C30003346ACEB060201064BBF1204120602F447
:102C40007C1202F07C52082B9E46A8BF4FF0080E63
:102C5000082B10DD102BD5BFA3F10801082100239C
:102C6000103B09F0FF0BB9F1000F7FF45DAF102EA0
:102C700004DC082E52E700210B46F2E7F1469E469F
:102C80004B4651E75B4659464EE7D5E90663B0B27D
:102C90004E4340EA0343E86AE360002808BF304639
:102CA00083B21A432B8C6FF30F0043EA0143236175
:102CB0005CE7000003282DE9F04706460C4600F3C8
:102CC0004E810A30FFF79AFEA578627805F0080376
:102CD000C2F3011143EA4113E17894F82A0001F0AC
:102CE000030143EA8153C5F3801143EA0153E90923
:102CF00043EA4153C2F3801181F00101C9B243EAB2
:102D0000810382F08001C90943EA0113A90201F499
:102D100080610B43010201F440710B43E90501F0AE
:102D2000807119432B0603F08057394305F01207D1
:102D3000122F00F0178103F000530B4305F022011E
:102D4000222900F00F8105F03001302900F00A81BE
:102D500006F5B021854FEF3109030B6047F82630A7
:102D600050B194F82D3094F82C001B0443EA002352
:102D700094F82B0003434B6294F82E0040B194F872
:102D8000303094F82F601B0443EA062303430B62A0
:102D9000237926781033B0021B0603F07C5300F42D
:102DA0004030184302F0030340EA8330C6F30113B6
:102DB00006F001079B0543EA8773C6F3400743EA21
:102DC000C773C6F3810643EA86130343C2F3810245
:102DD00043EA0253A279C5F38000120202F47C5246
:102DE00042EA804213436279A08A02F03F02134311
:102DF0000B61A368E26843439BB243EA02434B6121
:102E0000278A030403F47F03627CB4F81C803B43ED
:102E1000A77CB4F81EA0267C904543EA0763B4F86B
:102E2000189002F1FF372CBFBC46C4465245628B56
:102E300088BF57468B60B14506F1FF332CBF9E46D5
:102E4000CE46964288BF1346EE0600F18380BCF161
:102E5000020FA8BF4FF0020C022FA8BF0227BEF13D
:102E6000020FA8BF4FF0020E022BA8BF0223AE062E
:102E700048BF0023B4F9386042BF9E461F469C46B7
:102E80001EB100239E461F469C46A9EB0E0900FB7F
:102E900009F9D21A4243A8EB0C084FEA084808F493
:102EA0007F085FFA89F9AAEB070A48EA09081202C3
:102EB00048EA0A6892B242EA08028A62A27D9B004E
:102EC000120202F4E06203F00C0313430EF0030E4F
:102ED000E27D4FEA0C1C0CF0300C43EA0E03BF01FC
:102EE00043EA0C03FFB2120302F4E0423B431343F4
:102EF000AA0748BF228D1E4F48BF43EA0243228CD7
:102F0000CB6000FB02F36FEA0343002A6FEA13432E
:102F100008BF3B46B4F822C0451E00FB0C509AB2D5
:102F200042EA0042BCF1000F18BF1346E08CA28CAD
:102F3000002842EA07028B61636A08BF1346CB612F
:102F4000636B13B123F07F430B630020B6B24E6373
:102F5000BDE8F08700239E461F469C4687E74FF05A
:102F6000FF30F5E76FF00100F2E700BFDC1A043430
:102F70000000FFFF2DE9F04F032805460C468BB0FB
:102F800000F386811230FFF739FD4FF00063E279DC
:102F900005F5B025F73502F001072D0387F0010E86
:102FA00012F001002B604FEA8E0E40F09D80617A96
:102FB0004E1E7142714166794FEA461C0CF02003A7
:102FC000C6F3011843EA0E0343EA88630CF0400C91
:102FD00043EA0C03C6F3810643EA066343EAC103EE
:102FE00043EA0113002F40F081804FF4800743F43F
:102FF000001343F08003E17894F808C00E07D20173
:1030000002F4807206F0405616430CF1FF32D2B241
:103010000F2A6DD8DFF894E2BCF1070F1EF90220E9
:103020004FEA422202F4FC4242EA060242EA070266
:1030300043EA020343F4000208BF13462B6094F9ED
:103040000130267810339B00C6F30117DBB23B43F7
:10305000C6F38107320243EA8723B60943EA0633FF
:10306000A67802F440721343C6F3011243EA024306
:10307000320602F0706794F90420B6091032920407
:1030800002F47C023A43134343EA06736B63E37A28
:10309000227B5B01920202F4F84203F4787313433B
:1030A000A27A890702F01F0243EA0203A2794FEADB
:1030B000C23202F4FC1243EA0203AB60B4F92420EA
:1030C000238C43EA0243EB61638C2B6205D5E38BCF
:1030D000B4F91C1043EA0143AB6300232B6370B1C6
:1030E00000200BB0BDE8F08F002164E7002782E7E5
:1030F0004FF4FB61694B6A4A6A481DF0E3FB617A51
:103100000139042900F2C780DFE801F0038FA4AC85
:10311000B500608BEB60431E23F078432B61D4E94C
:103120000413594301FB00F3013B23F078436B6127
:10313000238B5943013921F07841A9610121081AF3
:10314000CE1AA9625849C0F3080040F4007001EAA1
:10315000864101436962B3F5007FA8BF4FF4007355
:103160000893A36A01320093E36A4FF000060193CB
:10317000236BB346029394F83430B246039394F829
:103180003530B046049394F83630B146059314BFF9
:1031900001234FF0FF33079305F12C03069301231E
:1031A000EB62089B99459BDA009B002B67D0514648
:1031B0001846039A01F094FA0746019B002B61D050
:1031C00018465946049A01F08BFA0346029A002ADF
:1031D0005BD03146059A0298099301F081FA079B6A
:1031E0005843099BE278BFB2D20744BF030C80B2B8
:1031F000B8F5C07F02BF4FF480780021069A47EAF5
:10320000034780B205EBC80308BF1160C3F8007420
:10321000C3F80404039B09F101099A44049B08F1D3
:1032200001089B44059B1E44BBE72169608B00FBA2
:1032300001F3013B23F07843EB6063695943414359
:10324000013921F0784129610121A962C91AC1F32C
:1032500008017FE7618B4B1E23F07843EB60236905
:103260005943EDE7618B4B1E23F07843EB60D4E9C3
:1032700004034343F4E7EB60AB6201236BE7B4F96B
:1032800020709AE7B4F92230A0E7B4F92400A9E746
:103290004FF0FF3025E76FF0010022E7225D023496
:1032A000C4940234AA5602340000FC07A3940234EA
:1032B0000128F8B505460C4600F3B3801630FFF739
:1032C0009DFB2378013BDBB2052B00F2A38056491E
:1032D00094F82200CB56618C9B00C1F3C11103F01E
:1032E0003C0343EA014394F823104205C90001F06E
:1032F000C0010B4394F8211000F00100090201F411
:103300007C510B4343EA803302F040721A4394F835
:10331000203094F8221010339B0403F47C031A43EA
:1033200005F5B023FB331B0342F400421A6094F806
:103330002420C1F3411102F00302120442EA810287
:1033400094F82310E58BC1F341000243C1F341110E
:1033500042EA81421A62E27A217BD200890101F4B9
:10336000707102F038020A43A17AA08801F00701C7
:103370000A43617B668A890201F470510A43E18A3B
:10338000A78A890301F4E0311143228B520402F42D
:1033900060220A43618B090501F4E0011143A28B0D
:1033A000D20502F060720A43A90601F070510A4387
:1033B00061889A6069431D4AC1F30B0102EA00402B
:1033C0000143D960E0882189C0F30B0002EA014182
:1033D000014300201961E18C8642596105FB06F129
:1033E000C1F30B0108BF01466E1E05FB076502EA2B
:1033F00005460E438542C8BF31469961E189248A5A
:10340000C1F30B0102EA04420A43844218BF114689
:10341000D961F8BD40F6DF01054B064A06481DF0AC
:1034200051FA4FF0FF30F4E79D9402340000FF0F93
:10343000225D0234B3940234AA560234002810B537
:103440000C460EDC1930FFF7D9FA2379084A03F04D
:103450000103DB001360236813F0070004D19360BD
:1034600010BD4FF0FF30FBE76FF00100F8E700BF41
:1034700000E00F5830B50124002554EA0D05034A39
:10348000136923EA0403136130BD00BF00000E5826
:1034900070B505460024861C8C4201DB002070BDFF
:1034A00015F8243036F82400082B7AD8DFE803F02A
:1034B000057918293A4A5B796B00022200F5B0239E
:1034C000E5331B031A601A689207FCD44FF0804260
:1034D0001A601A685200FCD4FFF7CCFF0134DBE716
:1034E000022200F5B023EF331B031A601A6892071B
:1034F000FCD44FF080421A601A685200FCD40A30A3
:10350000EAE7022200F5B023F3331B031A601A68BE
:103510009207FCD44FF080421A601A685200FCD423
:103520000E30D9E700F5B0231F4AF5331B031A60AC
:103530001A689207FCD41D4A1A601A685200FCD41B
:103540001030C9E700F5B023194AF7331B031A609E
:103550001A689207FCD44FF090421A601A68520021
:10356000FCD41230B8E700F5B023124AFB331B033A
:103570001A601A689207FCD40F4A1A601A6852003F
:10358000FCD41630A8E702220C4B1A601A68920786
:10359000FCD44FF080421A601A685200FCD41830F4
:1035A0009AE76FF001007AE7821088008010884067
:1035B00002000008020042000000424000D00F5804
:1035C00008B501210448FFF703FABDE808400221CD
:1035D0000248FFF75DBF00BFD4130434C4130434A2
:1035E000FFF7EEBF2DE9F34100240D4606461746CE
:1035F00021462246C3B200942046FFF771F8DFF857
:1036000048802246C8F80000EBB2214620460094CC
:10361000FFF7FAF8094B0A4A1C71DE801C705D80C6
:10362000012356601560074AAB40C2F89C30C8F8C9
:103630000800FB6002B0BDE8F08100BFC413043491
:10364000CC130434EC1A0434D413043408B50D4BF1
:103650001A682AB9B8210C4B0C4A0D481DF032F9F2
:103660001A68D2681AB1BB210A4B084AF5E71A68F2
:1036700012691AB1BC21084B044AEEE71B68D860F6
:1036800008BD00BF7C2204344A5802346A950234D3
:1036900074580234175902345E59023438B50B4D50
:1036A0000B4C294601226068FFF7B8F905F140018B
:1036B00001222068FFF7B2F901210648FFF74EF911
:1036C000BDE8384002210448FEF7C2BFEC1A0434BA
:1036D000CC130434D4130434C4130434FFF7DEBF12
:1036E00010B40C4601380F2898BF064B114698BFFE
:1036F00053F82030224688BF034B04485DF8044B42
:103700001DF00CBE10950234AE590234B659023485
:103710002DE9F04FA7B0329C8046DDE93095049446
:10372000339C9246059494681F460194019ED46888
:10373000A41B272C05D8309527B0BDE8F04F00F02A
:10374000DDB990F8283092F828609E420AD040F205
:1037500051716B4A0620FFF7C3FF6FF0010027B0DD
:10376000BDE8F08FA6F10803182B03D940F257717A
:10377000634AEFE790F8273092F827B09B4504D0D2
:1037800040F25C715E4A0920E5E7ABF10303012BCF
:1037900003D940F261715A4AF5E702244022002120
:1037A00006A81DF059FFD8E90323D8E90101CDE9A6
:1037B000092301230736F610042E4FEAC605EDB2A1
:1037C00008BF1025CDE907018DF818404D4C0DF1CB
:1037D000180C1493BCE80F000FC4BCE80F000FC412
:1037E000BCE80F008DF854508DF855500FC49CE87C
:1037F0000F00D8F82C8084E80F00DAF80430BBF111
:10380000040F0293D8F808304FF040024FF0000147
:10381000D8F804A0039316A84AD11DF01DFF042E6A
:1038200014BF0126022699F8032099F800E057F802
:10383000220099F8012057F82EE057F8221099F845
:103840000220029B57F82220D8F80070179307FB3C
:103850000AF7019BD8F80CC01893039B9DF8588079
:10386000CDE91D36CDE91F01CDE9212ECDE923A7F4
:1038700048F001088DF85880CDF870C08DF894504C
:103880008DF89550103416AD0FCD0FC40FCD0FC469
:103890000FCD0FC495E80F0084E80F00DDE90401A7
:1038A000194AFFF79FFE1848FFF7D0FE002056E7A1
:1038B0001DF0D2FE042E14BF0126022699F8022024
:1038C000D8F8003057F8220099F80020CDE91E60A2
:1038D00057F8221099F80120CDE9233357F82270C8
:1038E0009DF85820CDE9201742F001028DF85820AC
:1038F000029A1792019A1892039ACDE91C2ABDE701
:1039000050950234EC1A04349C130434027D43684D
:1039100002B11B68806818447047000003680246C3
:10392000002010B5591E0133013B06D140F2E231AF
:10393000054B064A06481CF0C5FF5468245C8C42BF
:1039400001D00130F0E710BD225D0234E39502346E
:103950001B5C0234013808B5032832D8DFE800F0D8
:103960000206182292F900300B7008BDD00705D569
:103970003921164B164A17481CF0A4FFCB0703D574
:103980003A21154B124AF6E7B2F900300B80ECE70A
:1039900092F900300B7092F901304B7092F90230BD
:1039A0008B70E2E7900703D04A210C4B084AE2E70C
:1039B0008B0703D04B210A4B054ADCE713680B60E9
:1039C000D3E75121074B024AD5E700BF025D02341D
:1039D0003D9602341B5C0234245D0234475D0234A0
:1039E000695D0234225D02342DE9F0430024D3F8EE
:1039F00000801D4608F1FF3385B083420E46CDE9B5
:103A00000120039414D9441C029AAB6853F8223065
:103A1000039A9A4202D305B0BDE8F0832B463146A3
:103A2000204601AAFFF7E0FF039B01330393EBE776
:103A300006D040F292312A4B2A4A2B481CF042FF12
:103A4000EF69A04515D1D5F818805ABB2B6904F150
:103A5000804453F82660AB68013C53F824902C7DD9
:103A6000B44239D14146384609FB04F21EF07BF8D6
:103A7000D1E7A6420CD02B6953F824C06B6813F829
:103A800004E001AB59688E4504D19B6803FB0C77B9
:103A90000134D6E71B68002BF4D140F25931134BA7
:103AA000134ACAE75368984204D84FF45F71114B28
:103AB000114AC2E7E96851F823109368126803FBC2
:103AC0000188C2E701FB0482204606FB0171FFF773
:103AD00041FF039B0133039303994945F2D39AE7CE
:103AE0008C5D0234CB9502341B5C0234225D0234BF
:103AF000AE950234B65D02348F9502342DE9F04F55
:103B00001F4690F827301646022B95B00AD840F28F
:103B10001941664A0F20FFF7E3FD6FF0010015B071
:103B2000BDE8F08F92F82790994503D040F21E41EE
:103B30005E4AEFE790F8283092F828409C4204D083
:103B400040F22341594A0620E5E7A4F10803182B67
:103B500003D94FF48561554AF5E71E9BC56A0734C2
:103B60000D93E30801938DF84430CDE90E51CDF863
:103B700030901097FFF7CAFE12903046FFF7C6FE4E
:103B8000B9F1040F13904FEAE4080CA800F2848006
:103B9000FFF7C4FE57F82030B9F1040F0393D5E9BD
:103BA00000231CBFCDE9042301234FF00006AC68BD
:103BB00012BF0693CDE90434EC68029004FB08F3CD
:103BC00008BF06920793069BB34263D10020A6E785
:103BD0000C9B09A9042B0AAA0CBF8C469446002111
:103BE000CDE909671398DDF834E0DDF840A0CDF8A1
:103BF0002C905D1E03F1010BBBF1010B1BD10022C8
:103C00001299DDF83CE005F1010ABAF1010A28D168
:103C1000039B434537D082468B460025A54228D1D9
:103C200009F10109059B4B45D2D10137049BBB42E9
:103C30002DD10136C7E7029A8A4210D01EF8012022
:103C4000954206D84FF47171194B1A4A1A481CF064
:103C500039FE5CF822205AF8213003FB02000131C2
:103C6000CAE75EF822505CF82230013203FB0511EE
:103C7000CBE75A4651460198FFF76CFE039B01358E
:103C80009A44C344CAE7079A1DF06DFFC8E74FF096
:103C90000009C7E70027C9E7FFF740FE00220146F9
:103CA0000CAB1046FFF7A0FE90E700BF279602344A
:103CB000DD5D0234029602341B5C023413B500222F
:103CC0000324114601201F4B009406F021F828B967
:103CD0003D211D4B1D4A1E481CF0F4FD00231D4ACA
:103CE000194610601A4606F06FF8002201201146AE
:103CF000194B009406F00CF860B1184B00211860C5
:103D0000174A4FF0FF3006F03FF838B947210E4B05
:103D10000E4AE0E742210C4B0C4ADCE7114B1249FA
:103D20001860012006F0F2F818B94C21064B074A3A
:103D3000D1E750220D4B18600D4B83F8352302B0AC
:103D400010BD00BF24220434245E02348F96023456
:103D5000345E023430210434D42104342C21043460
:103D600084210434282104343421043424210434EB
:103D700000E100E07047000008B5084B4FF0FF314C
:103D8000186806F0C5F9012806D040F21511044B59
:103D9000044A05481CF096FD08BD00BF28210434E4
:103DA000245E023478960234345E023407B50C4B3C
:103DB00001A9186806F0C0F8012806D04FF49671E2
:103DC000084B094A09481CF07DFD019B2BB14FF0BF
:103DD000E0234FF08052C3F8042D03B05DF804FBDC
:103DE00028210434245E023458960234345E0234AE
:103DF00010B5044628B92F21104B114A11481CF068
:103E000061FD03681BB930210F4B0D4AF6E700F046
:103E100011FA204600F0CCF9204600F089FA01287A
:103E200002D1FFF7A9FFF7E70228F5D1204600F0FD
:103E3000E3F9BDE8104000F049BA00BFE25E023489
:103E4000A7960234025F0234A55F023410B504461F
:103E500010B3036803B3DB69984700236060A06078
:103E6000E360236163616368A3B91A46626200225A
:103E7000E36AA2622276E26184F8202063B12146DF
:103E8000BDE810400420184714330132198A09078D
:103E9000FAD5EBE70122F9E710BD000008B5094BA0
:103EA0001A68824205D04221074B084A08481CF094
:103EB00009FD084A12681AB14621074B034AF5E783
:103EC0001A6008BD7C220434CE5F023405980234A7
:103ED0007458023478220434FA5F023408B5074B70
:103EE0001B682BB97521064B064A07481CF0EAFCF3
:103EF000064B1860C043064B586208BD7C22043450
:103F00004A580234589702347458023478220434E0
:103F100000100E5808B5038A5B0706D440F22F2123
:103F2000034B044A04481CF0CDFCC06808BD00BF28
:103F3000166002343997023431600234CB6A2DE9BD
:103F4000F04105460C4613B10246022098472B8AE1
:103F5000580718D52846FFF7DDFF28B1C221254BA9
:103F6000254A26481CF0AEFC0222254B1A601A682E
:103F70009107FCD44FF080421A601A685200FCD4BA
:103F80001920FFF777FA6B680BB1284698472E8AFD
:103F900016F0900F06F0C00708D10FBB194B1B6835
:103FA000A34215D1ED21184B134ADAE7154B1B68D4
:103FB000A34203D0E121154B0F4AD2E70020FFF7BF
:103FC0008DFFF306E9D52046FFF768FF002FE5D007
:103FD000E36A63B12A462146BDE8F0410320184751
:103FE0002369002BF4D1E368002BF1D1EBE7BDE8A6
:103FF000F08100BFD96002341A970234E2600234C3
:1040000000E00F587C220434AF6102348561023431
:1040100008B528B9F8211A4B1A4A1B481CF052FC63
:10402000C3691BB1FA21194B164AF6E7C36813B3EB
:10403000036923B14FF48171154B124AEDE74368D0
:10404000036183684361436A8362C3684360C368F2
:10405000836083686BB91A4600234262C360002301
:1040600080F8203008BD14330132198A0907FAD5C7
:10407000F2E70122F9E7436814334360EFE700BF3A
:104080001D620234F5960234E26002343862023472
:10409000686202347047000038B5044600285BD0DF
:1040A0002E4B034007D0594219402D4B0A03D258DA
:1040B0002C481DF033F9C4F3090313B12A481DF04D
:1040C00095F914F4700F02D028481DF08FF9E5011E
:1040D00002D527481DF08AF914F0C06F0ED025488C
:1040E0001DF084F9244B00211A6924481DF016F9AB
:1040F000234B01211A6921481DF010F9200102D536
:1041000020481DF073F961000CD51F4D1F48E96868
:104110001DF004F9296A1E481DF000F9E9691D48DF
:104120001DF0FCF8A20002D51B481DF05FF9E3006A
:1041300002D51A481DF05AF9FFF7ACFF22460023BA
:1041400040F24A3116481DF0E9F840F24E31154B65
:10415000154A16481CF0B6FB38BD00BF00FC0F0026
:104160003C500E58A9620234D6620234FC6202341A
:10417000206302344063023400200E585863023436
:1041800000300E586D63023400E00F58856302342E
:10419000B9630234E36302340464023425640234F4
:1041A00040640234225D0234D1960234E26002346B
:1041B00010B50446B0B10368A3B15B6833B94FF4DE
:1041C000D371094B094A0A481CF07CFB984720B977
:1041D00040F2A911074B054AF5E72046BDE810401B
:1041E000FFF734BE10BD00BF676402341B98023471
:1041F000E26002349C64023410B50446B8B1C36A6C
:104200001BB10146002205209847094B1B68A342B9
:1042100002D12046FFF742FE00236360A360E36003
:10422000236163616362A362E36184F8203010BD9F
:104230007C22043410B5FDF75DFF0222204B1A608A
:104240001A689107FCD44FF080421A601A68520035
:10425000FCD440F2FF325A614FF0FF325A621A68C2
:1042600042F001021A60FFF729FD4FF40012154BCE
:10427000C3F88420BFF34F8FBFF36F8F4FF48001DB
:10428000C3F88410BFF34F8FBFF36F8F4FF400015B
:10429000C3F88410BFF34F8FBFF36F8F4FF080715F
:1042A000C3F88410BFF34F8FBFF36F8F5A60064B74
:1042B0001B681BB1BDE810400620184710BD00BFA9
:1042C00000100E5800E100E07422043408B5164BCB
:1042D0001B680BB1072098474FF40012134BC3F82B
:1042E0008420BFF34F8FBFF36F8F4FF48002C3F86A
:1042F0008420BFF34F8FBFF36F8F4FF40002C3F8DA
:104300008420BFF34F8FBFF36F8F4FF08072C3F8DD
:104310008420BFF34F8FBFF36F8FFFF72BFDBDE8F6
:104320000840FEF783B900BF7422043400E100E0C6
:1043300073B5044630B94FF410718C4B8C4A8D48DC
:104340001CF0C0FA436823B940F243218A4B884AE3
:10435000F5E7037E8BB903680BB19B6823B940F284
:104360005521864B824AEAE7984720B940F2592105
:10437000834B7F4AE3E7012323766068038A5A0769
:1043800012D5FFF7C7FD012303FA00F094F820309F
:1043900003F0FF0643B3002836D0E36930EA030395
:1043A00004D0012002B070BDC068EFE7754B1B68F8
:1043B000A34204D040F27121734B6D4ABFE74FF422
:1043C0000011724AC2F88410BFF34F8FBFF36F8F92
:1043D000E36923EA0003E361516060682146FFF767
:1043E000ADFD2046FFF714FE63681B8A1B0734D51A
:1043F0002369002B00F0B780624B1A6832B997210D
:10440000634B644A64489BE70646EDE76268128A9C
:10441000160703D49821614B5E4AF3E72269128A9A
:10442000550603D49A215E4B5A4AEBE71868FFF70A
:1044300035FDE3681BB1A3215A4B564AE2E72269D6
:1044400062606269A260A26A626223616361A362C0
:104450006368143363600020A4E7002EFBD194F856
:104460002030002B69D1012384F820306568E3688F
:104470001BB161214B4B4C4A61E7E36A1BB12A46F1
:104480002146304698472B8AD80705D5E2691AB1EC
:104490005621464B464AB5E713F0500F15D0394A1E
:1044A00011688C4203D13121424B434AAAE711687B
:1044B00019B13521414B404AA4E74149096819B176
:1044C0003921404B3C4A9DE7146059071CD413F036
:1044D000900F0AD02B4B1B689C4203D078212A4BAB
:1044E000314A2CE7E868FFF7F9FC2B680BB1284646
:1044F00098472B8A5A071AD52846FFF70BFD30B18B
:10450000A421314B284A1AE740F2FF30EBE79DF82F
:104510000420AB6860F3000269468DF80420009324
:10452000FEF78CFF294A136843F001031360E36A26
:104530001BB12A462146012098476068038A5B0721
:104540000FD5FFF7E7FC012303FA00F000287FF402
:1045500028AF60682146FFF7F1FC2046FFF758FDC1
:1045600079E7C068F2E702201CE700BF1D62023451
:10457000EC970234E2600234A5640234E064023451
:104580009C6402347C2204344265023400E100E081
:104590004A580234C5970234745802346C650234A8
:1045A0000866023454660234A49702343862023436
:1045B000859702348C66023471970234B4660234F3
:1045C00078220434FA5F0234D960023400E00F58D4
:1045D000F8B5394B394C9D68236843B323685B6851
:1045E00033B940F2B131364B364A37481CF06AF9DC
:1045F00023685B681B8A5B070CD425F47F7020F06E
:104600000300FFF749FD23689BB940F2D2312F4BDD
:104610002C4AEAE723685868FFF77CFC20B140F297
:10462000BE312B4B274AE0E725F08050E9E72846CA
:10463000E7E723685B681B8A13F0040326D122682E
:104640005268D2682A4017D04FF0010C0A20216826
:10465000204EC96922FA03F7FF0707D51F0357F851
:1046600006E047F806E00CFA03F73943013803F196
:104670000103EFD12368D961BFF34F8F0E4B1D614A
:10468000BFF34F8FBDE8F840FFF790BB2368586831
:10469000FFF740FC20B140F291310D4B0E4AA4E7E8
:1046A000EB00E9D50D4BDA68DA602368DB69226834
:1046B00043F00103D361DFE700100E587C2204347D
:1046C000DE660234E5960234E26002344A5802346F
:1046D000D96002343C500E58B796023400E00F58AF
:1046E0002DE9F0434FF001084FF0000958EA0D2979
:1046F0004F09064650F82700531801F01F01C84023
:1047000008F1FF34B7EB531F45464FEA531C00EA4C
:10471000040010D04FF0FF384FF0FF3903F01F03B3
:1047200058EA0D39002756F82C10D31A21EA08064A
:1047300056EA0D373043002A08DD0123013A03FA17
:1047400002F26B420343024218BF1846BDE8F083F1
:1047500070B5484BC4B00A934369474A0B93836AC8
:104760000021CDE90C3390F858304FF08275002BC2
:10477000424B18BF13460E93036C40F201440F9353
:10478000436DCDE92215CDE9103390F8843024949F
:10479000002B0CBF0222042242F00102ADF81020CF
:1047A000C26E04ABADF81220D0F880200692D0F88B
:1047B000AC20079206AA059202691292C26813926F
:1047C0008268466A149242681696159212AA259239
:1047D00040F20242066A26921796C669CDE92A542B
:1047E00018968669199616AE27960AAECDE9286303
:1047F000C36B1A93836B1B93436B1C93036B1D93C7
:104800001AABCDE92C32036D22AA1E93C36C1F9301
:10481000836C00922093436C29AA21931EAB2E93A4
:104820000EAB2F93042308930123CDE93A13389359
:1048300001ABCDE93C3102ABCDE93F3103ABCDE972
:10484000423138AB09930E4B019231A81C223E91A4
:104850000291419103913093CDF8E4D01CF0FCFE1D
:10486000084B30A8359308AB36931FF097FD44B042
:1048700070BD00BF4010820040048408400404085A
:10488000070101009D43023490F82C30474A002B69
:10489000474B18BF134610B5C4B00A9343694FF095
:1048A00082740B93836ACDE90C33424B0E93036CF5
:1048B0000F93436DCDE9103390F88430002B0CBF7B
:1048C0000222042242F00102ADF81020C26E04ABB5
:1048D000ADF81220D0F8802022930692D0F8AC20B8
:1048E0000369079206AA059240F201421293C36837
:1048F000CDE9234213938368416A14931691016AA8
:1049000043681791C169159312AB2593189140F232
:10491000024381692B92199116A927910AA928911E
:104920000021C26B26931A92826BCDE929141B9247
:10493000426B1C92026B1D921AAACDE92C23036DC7
:1049400022AA1E93C36C1F93836C00922093436C26
:1049500029AA21931EAB2E930EAB2F930423089309
:104960000123CDE93A13389301ABCDE93C3102ABD9
:10497000CDE93F3103ABCDE9423138AB09930E4B62
:10498000019231A81C223E910291419103913093F2
:10499000CDF8E4D01CF060FE084B30A8359308AB8E
:1049A00036931FF0FBFC44B010BD00BF40048408E8
:1049B0004004040840108200070101009D430234B6
:1049C0000020487070470020704703234370002088
:1049D000704743780BB103234370002070470000F9
:1049E000F7B5044601F084FB90F85430074613B93C
:1049F000002003B0F0BD204601F02CFB1E4B1A68CE
:104A00008242F5D01D4D186095F900305A1C002BDC
:104A10002A700ADB6946204601F0A7F80028E8D191
:104A2000174A019B11680B44136095F900200A2A6C
:104A3000DED1134E3368B3FBF2F3BA6D33609342A9
:104A400012D99DF8013013B1013B8DF801300123DB
:104A5000694620468DF8003001F06CF80028C8D176
:104A6000FF2330602B70C4E7F1D29DF80130052B95
:104A7000EDD80133E9E700BF102504340C250434D8
:104A80000825043408B5034B186808B1FCF7D2FCBC
:104A9000002008BD30250434F7B504460E4601F069
:104AA00027FB90F85632054613B9012380F8563299
:104AB0002D48FCF7A5FC2D4F386030B1FCF7F4FC15
:104AC000012804D03868FCF7B5FCBE2033E03B6811
:104AD000EA6EE16F1A6195F87020D4F880705A651B
:104AE000D4F884200A205A64A26FD96464214FF05C
:104AF0002D0CC3E90501782140F2DC50C3E907C160
:104B000041F27071C3E9090142F6E061D96212A174
:104B1000D1E90001C3E90C0111A1D1E90001C3E908
:104B20000E0105211F649A64196595F86830012B00
:104B300003D00020707003B0F0BD69462046CDE977
:104B4000007201F053FA0028BFD1204601A901F0FC
:104B500029FA0028EDD0B8E700000040E17A943F40
:104B6000000000E04D62703F714B0034302504348A
:104B700008B5014603481CF0D1FBBDE808400248D7
:104B80001CF034BC148E0234AA6802342DE9F041C2
:104B900086B005460C4601F0ABFA064690F8680070
:104BA00028B16378012B05D9032B14D0002006B05F
:104BB000BDE8F08196F85632022602930123224680
:104BC000CDE900632846294B294901F0D5FC00288E
:104BD000EDD16670EBE7274FF26E3B6828461A610D
:104BE00096F8702004A95A65204B93F8378001F09D
:104BF000EFF90028DBD1284605A901F00DFA0028BD
:104C0000D5D11D4BF26E83F801805A603868434657
:104C1000DDE90412FCF753FC01280DD096F856325A
:104C20000226029301232246CDE9006328460F4B5A
:104C30000F4901F0A1FCCCE73B68049A9B689A42BB
:104C40000CD13B68059A5B689A42E7D0284605A9D3
:104C5000059301F0CBF90028E0D0A8E7284604A985
:104C6000049301F09FF90028EBD0A0E790240434CE
:104C7000CB490034302504341425043410B50648DB
:104C80000C46FCF703F8054B186010B1002060706B
:104C900010BDBE20FCE700BF714B00342C2504344E
:104CA00008B5034B186808B1FCF70CF8002008BDE4
:104CB0002C2504340000000008B52DED028B08EE11
:104CC000101A012101F0D6F990B1DFED0F7AB8EE9C
:104CD000488A88EE270A9FED081BB7EEC00A1EF02F
:104CE00047FF9FED077B20EE070BBDEC028B08BD55
:104CF000B8EE480BF9E700BF175D74D14517DD3FEB
:104D00000000000000E06F4000007F432DE9F04309
:104D100087B00C4602A9804601F01CF894F8367062
:104D2000064600283BD19DF80830012B37D11E4D97
:104D300094F835100346049AA1FB0501FCF7B6FE72
:104D400033468146059AA7FB0501FCF7AFFE94F8B0
:104D5000341007463346A1FB0501039AFCF7A6FE73
:104D600084F801902070A770404601A900F03BFF35
:104D700090B99DF80430012B0ED123789DF80520C1
:104D8000134423709DF806206378134463709DF8E4
:104D90000720A3781344A37007B0BDE8F083A38E67
:104DA000A7702380F8E700BF00E1F50500000000D0
:104DB0002DE9F0438BB00E46694615461C4601F0BE
:104DC0009BF80246002840F096809DF80030012BA9
:104DD00040F09180019BD917A3FB063706FB0177B2
:104DE00002994FEAE17CA1FB051005FB0C005B1862
:104DF00047EB000703984FEAE07CA0FB040104FBAB
:104E00000C111818049B41EB0701DF17A3FB068365
:104E100006FB0733059FA7FB05CE4FEAE77905FBA5
:104E200009EE18EB0C07DDF818C043EB0E034FEA50
:104E3000EC7EACFB04C804FB0E8817EB0C0748EBB8
:104E40000308079B4FEAE37CA3FB06E306FB0C3C4D
:104E5000089B4FEAE379A3FB053605FB09651EEBCA
:104E600003034CEB050C099D4FEAE57EA5FB0456B8
:104E700004FB0E665C194FF0FF33294D46EB0C0620
:104E8000A84271EB03033FDB23A3D3E90023FCF724
:104E90000DFEB0F5807F71F10001814601DB4FF01E
:104EA000FF094FF0FF33AF4278EB03032EDB1AA369
:104EB000D3E9002338464146FCF7F8FDB0F5807F82
:104EC00071F10001074600DBFF274FF0FF33AC42D2
:104ED00076EB03031CDB10A3D3E900232046314605
:104EE000FCF7E4FDB0F5807F71F10001044600DBC2
:104EF000FF244E463D46129B1E60139B1D60149B73
:104F00001C600BB0BDE8F0839146CAE70027DCE7E0
:104F10000024EEE7AFF3008000E1F505000000009B
:104F2000011F0AFA000000002DE9F04F2DED028B61
:104F30000024A1B006468846CDE909440B9401F04F
:104F4000D7F890F874200546714B32B91A700020DA
:104F500021B0BDEC028BBDE8F08F197811B1FF2AAA
:104F600040F0B680002288F80120012269491A70B9
:104F700085F874200A700422674B1A7000249FED94
:104F8000678ADFF8A491DFF89CA105F58A77786835
:104F9000002800F0AD8054B13B6803EB43030344A9
:104FA0009B0807EE903AF8EEE77A49ED017AD7EDE3
:104FB000067AF8EE677A87EE887AD7ED0B7AF8EE04
:104FC000677A8DED107A87EE887AD7ED107AF8EE51
:104FD000677A8DED117A8DED127A87EE887A242327
:104FE00016A98DED137A4FF0000C0A4603FB04530B
:104FF000D3ED5A7AF8EEE77A87EE887AD3ED5B7ACA
:10500000F8EEE77A81ED007A87EE887AD3ED5C7A64
:10501000F8EEE77A81ED017A87EE887A0CF1010CDF
:10502000BCF1030F81ED027A03F10C0301F10C01D5
:10503000DED107EE900A4420B8EE670A00FB04A018
:1050400009AB10A90134FBF743FE052C07F1040757
:1050500009F104099BD105EB840393ED451A95ED05
:10506000460A2F4DB8EE411BB8EE400B2D4B2E4A91
:105070002868A1B2FBF74CFE012840F044810FF2F2
:10508000800BDBE900ABB0EE007B9FED1F6B4FF0B8
:105090007E52032C98BFB0EE467B2B68C3F8B82233
:1050A000224A83EDA87BC3E9A6ABC3F8B42205234B
:1050B000CDE901030224424630461D4B1D490094B0
:1050C00001F05AFA00287FF443AF88F801403FE727
:1050D00098F80130032B2FD03FF639AF002B3FF467
:1050E0004DAF012B7FF433AF0522CDE90132E1E76B
:1050F0009620002C3FF42CAFADE700BFAFF300804B
:105100009A9999999999F53FCDCCCCCCCCCCFC3FD0
:105110008D2404348C240434E413043420BCBE4CA9
:105120002C250434282304347C240434000040401B
:10513000B0220434D3490034DFF86C92304649463B
:10514000FFF7E4FDDFF86CC2A646674699F8000059
:1051500099F8011099F80220DCF80030C31A002BEE
:10516000B8BF5B42022B00F3A880DCF80430CB1AF6
:10517000002BB8BF5B42022B00F39F80DCF80830A5
:10518000D31A002BB8BF5B42032BA8BF01240EF13A
:10519000010EBEF1030F0CF10C0CDDD17E4BDFF8DC
:1051A00018A293F800C09AF800E0DFF810B24EEAB7
:1051B0000C031C43E4B2002C4CD008ABC7E9060139
:1051C0003A62029307AB019306AB009399F836302D
:1051D00099F83520304699F83410FFF7E9FD30464C
:1051E0000699FFF769FD304607998DED100BFFF723
:1051F00063FD304608998DED120BFFF75DFD6748A2
:1052000001220021006810AB8DED140BFBF756FF57
:10521000012876D1614B1B6893ED127B604B1B68B4
:1052200006EE903AB8EE666BB4EE467BF1EE10FAFD
:10523000059303D1584B1B78012B0BD1DBED016A91
:10524000B8EE666BB4EE467BF1EE10FA37D1002370
:105250008AF80030002400234F4A13709AF8003077
:1052600013B1013B8AF800303B680522FB607B6884
:1052700002253B61BB6830467B6199F800304949A3
:105280003B6099F801307B6099F80230BB60DBF835
:105290000030CBF80430424B1B68CBF800300123C0
:1052A0000095CDE9013242463F4B01F065F9002CF3
:1052B00018BF204688F801504AE6012467E79AF8AB
:1052C0000030FCEEC76B042B98BF0423374A98BF0D
:1052D0008AF80030C2ED046A0523002205F58A71C0
:1052E00091ED016AB8EE466BB4EE467BF1EE10FA32
:1052F00001F1040109D0013B02F10102F0D1962431
:10530000A9E7BE24A7E7BE2022E601234FF0040E42
:105310008DF8583024234EF001E003FB025317AC04
:1053200003F5B473A446186859680833ACE8030061
:1053300064460FF009C80592186816A9CCF8000059
:10534000304600F051FD059A0446002883D1012320
:1053500005EB82058DF83030D5F82C3130460D93B1
:10536000D5F840310CA90E93D5F8543105920F931E
:1053700000F056FC044600287FF46DAF074B059AF9
:105380001B6893ED127BBCEEC77B054B83ED007A67
:10539000074B1A605FE700BF8C2404342C250434CB
:1053A00088220434D3490034B02204341425043450
:1053B000282504348C220434E41304348022043479
:1053C00038B504460025094B8361A369595921B9B1
:1053D00004350C2DF9D1002038BD4B68002BF7D0D7
:1053E000204698470028F3D0F6E700BFE8130434BE
:1053F00038B504460025A369595921B904350C2D47
:10540000F9D1002038BD8B68002BF7D02046984793
:105410000028F3D0F6E738B504460025A3695959AA
:1054200021B904350C2DF9D1002038BDCB68002BF3
:10543000F7D0204698470028F3D0F6E7F7B50E4698
:1054400017461C460546002866D0002964D0002B6C
:1054500062D08022002108301CF0FEF80FCCC5E994
:10546000006705F11C060FC60FCC0FC6236833601A
:10547000AB6A33B929481BF0B9FFB424204603B006
:10548000F0BDEB6A0BB92648F5E72B6B0BB9254845
:10549000F1E76B6B0BB92448EDE7AB6B0BB9234815
:1054A000E9E72846089900F019FE04460028E5D1EE
:1054B000284605F14C0100F067FD04460028DDD1C7
:1054C0002A6FB2F5286F0FD3B2F5A85F20D3B2F5DB
:1054D000285F1FD3B2F5A84F4FF0080305D3144837
:1054E0001BF084FF1E24C9E70123284601A98DF87B
:1054F000043000F025FA04460028BFD12846FFF703
:105500005FFF04460028B9D1284600F0F5FDB5E755
:105510000223EAE70423E8E70124AFE7286702341F
:105520006067023498670234D06702340C68023432
:105530004868023438B5054650B1FFF759FF0446B4
:1055400020B90146882228461CF086F8204638BD3E
:105550000124FBE70000000067B50546002800F0C5
:10556000958000F067FD002849D1284600F0C0FD75
:10557000064600F10C01284600F082F900283ED1D1
:105580003146284600F0BBF9002838D1284606F1FC
:10559000140100F009FA90BBF36C2BBB336D83BB95
:1055A00096F85C302BB1284606F15C0100F0C2FA97
:1055B00028BB96F864302BB1284606F1640100F050
:1055C000EEFAE0B996F81C323BBB96F82C32002B71
:1055D0002FD12B69002B38D1284606F13C0100F071
:1055E0005DFA002834D00AE096F86830002BD5D157
:1055F000284606F14C0100F0D5FC0028CED003B0BF
:1056000060BD96F86830002BCAD1284606F15001DB
:1056100000F0ECFC0028C3D0F1E796F87430002BC2
:10562000D3D1284606F5077100F0FAFA0028CCD04D
:10563000E5E796F87430002BCBD1284606F50B71C0
:1056400000F0D2FB0028C4D0D9E76B69002BC3D08F
:10565000284606F5157100F01FFD0028CFD196F9F8
:105660006930B0EE000B01EE103ABAEEEF1AB7EE69
:10567000C11A01901EF07CFA9FED057B20EE070B0E
:10568000BCEEC00B019886ED1B0AB8E70120B6E717
:105690000000000000004C4038B5054650B100F055
:1056A0002DFF04462846FFF7B6FE002C08BF04462F
:1056B000204638BD0124FBE710B50C4600F018FD6C
:1056C0004FF0050E21464EF001E000F58C7050F8C9
:1056D000043B41F8043B0FF007C0002010BD70B53B
:1056E0000E468EB00446154600F002FD2EB1012391
:1056F00080F8743000200EB070BD3146052300F5EF
:105700008A7252F8046FAE4205D0013B01F10101EB
:10571000F7D19620EFE700234FF0040E80F87430A5
:1057200000EB8103D3F82C6101220196D3F840618C
:10573000D3F854314EF001E00393242303FB01031B
:105740008DF800208DF81020029603F5B47305AA99
:10575000164618685968083303C632460FF009C068
:10576000186869463060204600F05AFA0028C2D115
:10577000204604A900F038FB0028BCD12946204669
:1057800000F072FCB7E700F0BFBC00F05FBC00F0B7
:1057900063BC00F065BC000010B5D0E90440604374
:1057A0000D4C0229247804FB04F4B0FBF4F010D073
:1057B000012A14BF0422022282429FBFB0FBF2F0F2
:1057C000420802EB0323B3FBF0F08CBF0020C0B211
:1057D00010BD0122F0E700BFAA140434F0B50B4657
:1057E000064600240C2793E8070007FB04650134F4
:1057F000032C85E80700F6D1F0BD70B506460C46CF
:1058000001252346EAB20121306801350FF040F846
:10581000042D04F10404F4D170BD00000000000068
:1058200007EE101A05EE100A9FED0F4BB8EEC77B7E
:1058300006EE102AB8EEC55B27EE047B9FED0C4BFD
:10584000B8EEC66BA5EE047B9FED0B5BA6EE057B69
:10585000FCEEC77B82B0CDED017A9DF8040002B06A
:10586000704700BFAFF3008062105839B4C8E23F00
:10587000894160E5D022D33FC976BE9F1A2FBD3F34
:10588000F0B5044687B0002837D0002935D08F788E
:10589000072F32D8CE78072E2FD80D79072D2CD888
:1058A0004879072829D80B7813B14A78042A07D1F8
:1058B000012120680EF098F900B10B2007B0F0BD6F
:1058C000022A18D0511E4B424B41032A4FEA430390
:1058D00008BF062305900121206801AACDE90337FE
:1058E000CDE901650EF00EF90028E6D1012120680E
:1058F0000EF062F9E0E70423ECE70A20DEE710B5DA
:105900000446D8B1D1B14A68072A17D840F6FE70CC
:105910008B68834212D80978206821B901210EF0E2
:10592000B7F928B103E001210EF076F908B115208E
:1059300010BD012120680EF09DF9F2E71420F7E771
:1059400037B50C46054650B349B30B78013B072BDE
:1059500025D8DFE803F01704241124242414082395
:105960000222CDE9003201216A4628680DF0C2FE0C
:1059700058B11F2003B030BD10230422F1E71823D3
:105980000622EEE700231A46EBE7012128680DF016
:10599000EFFE0028EDD12278024B1A70EAE71E20B4
:1059A000E8E700BFAA1404342DE9F043054685B0AA
:1059B000002871D000296FD04B68B3F5C57F6BD834
:1059C000D1F80890B9F5C57F66D8D1F80C80B8F544
:1059D000C57F61D8D1F810E0BEF5C57F5CD8D1F89D
:1059E00014C0BCF5C57F57D88F69B7F5C57F53D8AC
:1059F000CE69B6F5C57F4FD80C6AB4F5C57F4BD8D4
:105A00004A6AB2F5C57F47D80978006821B90121F3
:105A10000EF012FEC0B336E0190164231201B1FB8F
:105A2000F3F1B2FBF3F24FEA09194FEA08184FEA13
:105A30000E1E4FEA0C1C3F0136012401B9FBF3F99D
:105A4000B8FBF3F8BEFBF3FEBCFBF3FCB7FBF3F7CC
:105A5000B6FBF3F6B4FBF3F48DF804108DF80C20CC
:105A6000012101AA8DF805908DF806808DF807E0D8
:105A70008DF808C08DF809708DF80A608DF80B401C
:105A80000EF040FD18B1292005B0BDE8F0830121DA
:105A900028680EF0B9FDBDE72820F5E7F0B50E4601
:105AA000054685B0002841D000293FD040F6FE725F
:105AB000086890423AD84968914237D8B36893420F
:105AC00034D840F6FA74F268171FA7422ED8032B79
:105AD0002CD92F6FC418BC4228D86F6F8C18BC42C9
:105AE00024D8134C2478B0FBF4F0B1FBF4F1B2FBF2
:105AF000F4F2B3FBF4F301900091029201216A46A3
:105B0000286803930EF0E4FB18B13324204605B057
:105B1000F0BD012128680EF065FC04460028F4D190
:105B200096E80F00083585E80F00EFE73224EDE72F
:105B3000AA14043410B50446A8B1A1B14A78072AC2
:105B400011D80B78006801211BB90EF0EFF820B1D5
:105B500002E00EF0ABF808B13D2010BD0121206835
:105B60000EF0CCF8F3E73C20F7E738B50D460446D5
:105B700098B191B1012100680EF002F9287001215D
:105B800020680EF0EBF86870012120682A1D0EF0E5
:105B90001DF9002818BF3D2038BD3C20FCE713B597
:105BA0000446F0B1E9B10B78006823B901210EF089
:105BB000D5FA78B10DE04B7801AA8DF804308B78D6
:105BC0008DF80530CB7801218DF806300EF08CFA77
:105BD00010B1472002B010BD012120680EF0A6FAD6
:105BE000E7E74620F6E737B50C460546B0B1A9B160
:105BF000012100680EF0E0FA20702868012101AA56
:105C00000EF0C4FA00209DF8043063709DF8053052
:105C1000A3709DF80630E37003B030BD4620FBE76B
:105C20002DE9F74F0546002800F08B80002900F091
:105C300088804A68464B9A4200F28380D1F80880F7
:105C400098457ED8CF689F427BD80B78066833B9D9
:105C5000012130460EF03EFC00285BD059E00024C4
:105C6000104639A3D3E90023214650EACF11FBF7B0
:105C70006DFF234682468B462246BAF5807F7BF134
:105C8000000003F1010148D20024002A08BF134696
:105C9000404621468DF8003050EACF112AA3D3E9BF
:105CA00000238DF801A0FBF751FF2346804689466B
:105CB0002246B8F5807F79F1000003F1010131D26D
:105CC0000024002A08BF1346384621468DF80230CA
:105CD00050EACF111CA3D3E900238DF80380FBF712
:105CE00035FF2346804689462246B8F5807F79F104
:105CF000000003F101011AD2002A08BF1346012156
:105D00006A4630468DF804308DF805800EF082FB2F
:105D100090B1512003B0BDE8F08F5AEA5F0B0B46FB
:105D20000122AAE758EA5F090B460122C1E758EAB7
:105D30005F090B460122D8E7012128680EF0B2FB6B
:105D40008AE75020E6E700BF00E1F505000000000B
:105D500000105E5FF7B50C46054600283FD00029CD
:105D60003DD0012100680EF087FE207028686A4649
:105D700001210EF0BFFD01239DF800109DF80120C8
:105D800003FA01F181FB0210164AA1FB02150E462F
:105D900002FB005756EADF179DF802009DF803103A
:105DA00003FA00F080FB0101A0FB020566600646D5
:105DB00002FB015756EADF179DF80410A6608B40DE
:105DC0009DF8051083FB0135A3FB0236184602FB44
:105DD000056150EADF11E060002003B0F0BD502003
:105DE000FBE700BF00E1F50570B5054688B00C463D
:105DF0001A22002101A81BF02FFC6DB164B12346CB
:105E00003A483B4A04F1240659680144914203D8B8
:105E100099680144914201D95A205FE0D968014450
:105E20009142F9D80C33B342EED123782E6833B9BE
:105E3000012130460EF040F900284FD04DE0606857
:105E400000232C4AC117FBF731FEADF80600A0680D
:105E50000023284AC117FBF729FEADF80800E068C7
:105E60000023244AC117FBF721FEADF80A00206980
:105E70000023204AC117FBF719FEADF80E00606938
:105E800000231C4AC117FBF711FEADF81000A069F2
:105E90000023184AC117FBF709FEADF81200E069AC
:105EA0000023144AC117FBF701FEADF81600206A63
:105EB0000023104AC117FBF7F9FDADF81800606A1E
:105EC0000C4A0023C117FBF7F1FD0121ADF81A00C0
:105ED00001AA30460DF096FF10B15B2008B070BDEE
:105EE000012128680EF0D0F8A6E700BFC041C8170E
:105EF0008083902FE1F5050030B50C46054689B04A
:105F000000283CD000293AD0012100680EF0DAFDCB
:105F100020700121286801AA0EF00CFD194BBDF973
:105F200006200020A2FB03216260BDF90820A2FB2D
:105F30000321A260BDF90A20A2FB0321E260BDF9A2
:105F40000E20A2FB03212261BDF91020A2FB032138
:105F50006261BDF91220A2FB0321A261BDF91620E6
:105F6000A2FB0321E261BDF91820A2FB03212262FA
:105F7000BDF91A20A2FB0323626209B030BD5A208A
:105F8000FBE700BFE1F5050008B538B131B1836A20
:105F900013B14068984718B9002008BD6E20FCE78F
:105FA0006F20FAE710B50C4670B169B1C36A096891
:105FB00023B900202268054B9A6010BD40689847BD
:105FC0000028F6D07920F8E77820F6E71425043485
:105FD00008B538B131B1036B13B14068984718B9AF
:105FE000002008BD7820FCE77920FAE710B50C46C0
:105FF00070B169B1436B096823B900202268054B71
:10600000DA6010BD406898470028F6D08320F8E792
:106010008220F6E71425043408B538B131B1836B1A
:1060200013B14068984718B9002008BD8220FCE7EA
:106030008320FAE708B538B100680EF069FD022840
:1060400014BF8C20002008BD0120FCE7036C013345
:1060500003647047006C7047436C013343647047BE
:10606000836C013383647047014B002019607047D3
:10607000EC28043408B568B1012906D0022904D0FF
:106080000020003818BF012008BD00680DF00EFD8B
:10609000C0B2F6E70120F7E738B50D46044608B967
:1060A000952038BD0029FBD00B780068012153B939
:1060B0000DF0DAFC0028F3D16B78206833B10221AF
